:100000000C942A000C948B010C948B010C948B01A2
:100010000C948B010C948B010C948B010C948B0130
:100020000C948B010C948B010C946C010C948B013F
:100030000C948B010C948B010C948B010C948B0110
:100040000C948B010C948B010C948B010C948B0100
:100050000C948B0111241FBECFE5D8E0DEBFCDBFCD
:0C0060000E9418010C946101F894FFCF7D
:10006C004423B9F1413009F06BC0813089F028F09C
:10007C008230C9F0833011F108952AB381E090E009
:10008C0002C0880F991F6A95E2F7822B8ABB0895EC
:10009C0027B381E090E002C0880F991F6A95E2F7C0
:1000AC00822B87BB089524B381E090E002C0880FB7
:1000BC00991F6A95E2F7822B84BB089521B381E0E6
:1000CC0090E002C0880F991F6A95E2F7822B81BBE2
:1000DC000895813091F028F08230D9F0833029F1E5
:1000EC0008952AB381E090E002C0880F991F6A95A9
:1000FC00E2F7809582238ABB089527B381E090E0D4
:10010C0002C0880F991F6A95E2F78095822387BBFE
:10011C00089524B381E090E002C0880F991F6A957E
:10012C00E2F78095822384BB089521B381E090E0AF
:10013C0002C0880F991F6A95E2F78095822381BBD4
:02014C00089514
:10014E004423B9F1413009F06BC0813089F028F0B9
:10015E008230C9F0833011F108952BB381E090E025
:10016E0002C0880F991F6A95E2F7822B8BBB089508
:10017E0028B381E090E002C0880F991F6A95E2F7DC
:10018E00822B88BB089525B381E090E002C0880FD2
:10019E00991F6A95E2F7822B85BB089522B381E001
:1001AE0090E002C0880F991F6A95E2F7822B82BBFE
:1001BE000895813091F028F08230D9F0833029F102
:1001CE0008952BB381E090E002C0880F991F6A95C5
:1001DE00E2F7809582238BBB089528B381E090E0EF
:1001EE0002C0880F991F6A95E2F78095822388BB1B
:1001FE00089525B381E090E002C0880F991F6A959B
:10020E00E2F78095822385BB089522B381E090E0CA
:10021E0002C0880F991F6A95E2F78095822382BBF0
:02022E00089531
:1002300041E065E080E00E94360041E065E080E05A
:100240000E94A7000E947F01C0E00AC08C2F0E947C
:100250008D018FE39CE90197F1F700C00000CF5FAB
:10026000CF3FA1F79FEF21EE84E0915020408040E6
:10027000E1F700C000000AC08C2F0E948D018FE3BF
:100280009CE90197F1F700C00000C150C111F4CF03
:02029000E7CFB6
:1002920083B7816083BF83B7826083BF83B78B7F5D
:1002A20083BF83B7806483BF83B7886083BF83B70C
:1002B200806183BF83B7806283BF0E947601089505
:1002C200EC010E9492010E949101CE010E949301D1
:0602D200CE010E948F0125
:1002D8001F920F920FB60F9211240F900FBE0F901E
:0402E8001F901895B6
:1002EC000E94870189B7826089BF89B78E7F89BFD9
:0202FC00089563
:1002FE000E94490141E063E081E00E9436000895CA
:08030E008FB780688FBF0895CE
:040316000C94000043
:04031A008CBF0895F7
:04031E000E94340005
:0203220008953C
:0203240008953A
:02032600089538
:00000001FF
